{
  "_format": "hh-sol-artifact-1",
  "contractName": "StreamRollSupply",
  "sourceName": "contracts/StreamRollSupply.sol",
  "abi": [
    {
      "inputs": [],
      "stateMutability": "nonpayable",
      "type": "constructor"
    },
    {
      "anonymous": false,
      "inputs": [
        {
          "indexed": false,
          "internalType": "string",
          "name": "",
          "type": "string"
        },
        {
          "indexed": false,
          "internalType": "uint256",
          "name": "",
          "type": "uint256"
        }
      ],
      "name": "Log",
      "type": "event"
    },
    {
      "inputs": [],
      "name": "_cEth",
      "outputs": [
        {
          "internalType": "address",
          "name": "",
          "type": "address"
        }
      ],
      "stateMutability": "view",
      "type": "function"
    },
    {
      "inputs": [
        {
          "internalType": "address",
          "name": "",
          "type": "address"
        }
      ],
      "name": "authorizations",
      "outputs": [
        {
          "internalType": "bool",
          "name": "",
          "type": "bool"
        }
      ],
      "stateMutability": "view",
      "type": "function"
    },
    {
      "inputs": [
        {
          "internalType": "address",
          "name": "",
          "type": "address"
        }
      ],
      "name": "balances",
      "outputs": [
        {
          "internalType": "uint256",
          "name": "",
          "type": "uint256"
        }
      ],
      "stateMutability": "view",
      "type": "function"
    },
    {
      "inputs": [],
      "name": "exchangeRate",
      "outputs": [
        {
          "internalType": "uint256",
          "name": "",
          "type": "uint256"
        }
      ],
      "stateMutability": "view",
      "type": "function"
    },
    {
      "inputs": [
        {
          "internalType": "address",
          "name": "_requested",
          "type": "address"
        }
      ],
      "name": "getBalance",
      "outputs": [
        {
          "internalType": "uint256",
          "name": "",
          "type": "uint256"
        }
      ],
      "stateMutability": "view",
      "type": "function"
    },
    {
      "inputs": [
        {
          "internalType": "uint256",
          "name": "_amount",
          "type": "uint256"
        }
      ],
      "name": "getEtherBack",
      "outputs": [
        {
          "internalType": "bool",
          "name": "",
          "type": "bool"
        }
      ],
      "stateMutability": "nonpayable",
      "type": "function"
    },
    {
      "inputs": [],
      "name": "supplyEthToCompound",
      "outputs": [
        {
          "internalType": "bool",
          "name": "",
          "type": "bool"
        }
      ],
      "stateMutability": "payable",
      "type": "function"
    },
    {
      "stateMutability": "payable",
      "type": "receive"
    }
  ],
  "bytecode": "0x608060405273d6801a1dffcd0a410336ef88def4320d6df1883e6000806101000a81548173ffffffffffffffffffffffffffffffffffffffff021916908373ffffffffffffffffffffffffffffffffffffffff16021790555034801561006457600080fd5b5060008054906101000a900473ffffffffffffffffffffffffffffffffffffffff16600260006101000a81548173ffffffffffffffffffffffffffffffffffffffff021916908373ffffffffffffffffffffffffffffffffffffffff16021790555060206001819055506109ae806100dd6000396000f3fe6080604052600436106100745760003560e01c8063589f22991161004e578063589f2299146101255780636fb9ec5d14610150578063f5837ada1461018d578063f8b2cb4f146101ab5761007b565b806327e235e3146100805780633a13e1af146100bd5780633ba0b9a9146100fa5761007b565b3661007b57005b600080fd5b34801561008c57600080fd5b506100a760048036038101906100a291906105ee565b6101e8565b6040516100b4919061076c565b60405180910390f35b3480156100c957600080fd5b506100e460048036038101906100df91906105ee565b610200565b6040516100f19190610703565b60405180910390f35b34801561010657600080fd5b5061010f610220565b60405161011c919061076c565b60405180910390f35b34801561013157600080fd5b5061013a610226565b60405161014791906106e8565b60405180910390f35b34801561015c57600080fd5b506101776004803603810190610172919061061b565b61024a565b6040516101849190610703565b60405180910390f35b610195610433565b6040516101a29190610703565b60405180910390f35b3480156101b757600080fd5b506101d260048036038101906101cd91906105ee565b610566565b6040516101df919061076c565b60405180910390f35b60036020528060005260406000206000915090505481565b60046020528060005260406000206000915054906101000a900460ff1681565b60015481565b60008054906101000a900473ffffffffffffffffffffffffffffffffffffffff1681565b600081600360003373ffffffffffffffffffffffffffffffffffffffff1673ffffffffffffffffffffffffffffffffffffffff1681526020019081526020016000205410156102ce576040517f08c379a00000000000000000000000000000000000000000000000000000000081526004016102c59061071e565b60405180910390fd5b600260009054906101000a900473ffffffffffffffffffffffffffffffffffffffff1673ffffffffffffffffffffffffffffffffffffffff1663db006a75836040518263ffffffff1660e01b8152600401610329919061076c565b602060405180830381600087803b15801561034357600080fd5b505af1158015610357573d6000803e3d6000fd5b505050506040513d601f19601f8201168201806040525081019061037b9190610648565b506001600460003373ffffffffffffffffffffffffffffffffffffffff1673ffffffffffffffffffffffffffffffffffffffff16815260200190815260200160002060006101000a81548160ff02191690831515021790555081600360003373ffffffffffffffffffffffffffffffffffffffff1673ffffffffffffffffffffffffffffffffffffffff16815260200190815260200160002060008282546104239190610848565b9250508190555060019050919050565b6000600260009054906101000a900473ffffffffffffffffffffffffffffffffffffffff1673ffffffffffffffffffffffffffffffffffffffff16631249c58b346040518263ffffffff1660e01b81526004016000604051808303818588803b15801561049f57600080fd5b505af11580156104b3573d6000803e3d6000fd5b5050505050600154346104c691906107ee565b600360003373ffffffffffffffffffffffffffffffffffffffff1673ffffffffffffffffffffffffffffffffffffffff16815260200190815260200160002060008282546105149190610798565b925050819055507fdd970dd9b5bfe707922155b058a407655cb18288b807e2216442bca8ad83d6b56001543461054a91906107ee565b604051610557919061073e565b60405180910390a16001905090565b6000600360008373ffffffffffffffffffffffffffffffffffffffff1673ffffffffffffffffffffffffffffffffffffffff168152602001908152602001600020549050919050565b6000813590506105be8161094a565b92915050565b6000813590506105d381610961565b92915050565b6000815190506105e881610961565b92915050565b600060208284031215610604576106036108f3565b5b6000610612848285016105af565b91505092915050565b600060208284031215610631576106306108f3565b5b600061063f848285016105c4565b91505092915050565b60006020828403121561065e5761065d6108f3565b5b600061066c848285016105d9565b91505092915050565b61067e8161087c565b82525050565b61068d8161088e565b82525050565b60006106a0601083610787565b91506106ab826108f8565b602082019050919050565b60006106c3600b83610787565b91506106ce82610921565b602082019050919050565b6106e2816108ba565b82525050565b60006020820190506106fd6000830184610675565b92915050565b60006020820190506107186000830184610684565b92915050565b6000602082019050818103600083015261073781610693565b9050919050565b60006040820190508181036000830152610757816106b6565b905061076660208301846106d9565b92915050565b600060208201905061078160008301846106d9565b92915050565b600082825260208201905092915050565b60006107a3826108ba565b91506107ae836108ba565b9250827fffffffffffffffffffffffffffffffffffffffffffffffffffffffffffffffff038211156107e3576107e26108c4565b5b828201905092915050565b60006107f9826108ba565b9150610804836108ba565b9250817fffffffffffffffffffffffffffffffffffffffffffffffffffffffffffffffff048311821515161561083d5761083c6108c4565b5b828202905092915050565b6000610853826108ba565b915061085e836108ba565b925082821015610871576108706108c4565b5b828203905092915050565b60006108878261089a565b9050919050565b60008115159050919050565b600073ffffffffffffffffffffffffffffffffffffffff82169050919050565b6000819050919050565b7f4e487b7100000000000000000000000000000000000000000000000000000000600052601160045260246000fd5b600080fd5b7f4e6f7420656e6f7567682066756e647300000000000000000000000000000000600082015250565b7f4e65772062616c616e6365000000000000000000000000000000000000000000600082015250565b6109538161087c565b811461095e57600080fd5b50565b61096a816108ba565b811461097557600080fd5b5056fea2646970667358221220f7ef4efbed5e859c4d9e84d6ae179b949827cfd2b2e5c488aad334f73c78986664736f6c63430008070033",
  "linkReferences": {},
  "deployedLinkReferences": {}
}